{
  "contractName": "Adoption",
  "abi": [
    {
      "inputs": [],
      "payable": false,
      "stateMutability": "nonpayable",
      "type": "constructor"
    },
    {
      "constant": true,
      "inputs": [
        {
          "internalType": "uint256",
          "name": "",
          "type": "uint256"
        }
      ],
      "name": "adopters",
      "outputs": [
        {
          "internalType": "address",
          "name": "",
          "type": "address"
        }
      ],
      "payable": false,
      "stateMutability": "view",
      "type": "function"
    },
    {
      "constant": false,
      "inputs": [],
      "name": "getName",
      "outputs": [
        {
          "internalType": "string",
          "name": "",
          "type": "string"
        }
      ],
      "payable": false,
      "stateMutability": "nonpayable",
      "type": "function"
    },
    {
      "constant": false,
      "inputs": [
        {
          "internalType": "uint256",
          "name": "petId",
          "type": "uint256"
        }
      ],
      "name": "adopt",
      "outputs": [
        {
          "internalType": "uint256",
          "name": "",
          "type": "uint256"
        }
      ],
      "payable": false,
      "stateMutability": "nonpayable",
      "type": "function"
    },
    {
      "constant": true,
      "inputs": [],
      "name": "getAdopters",
      "outputs": [
        {
          "internalType": "address[16]",
          "name": "",
          "type": "address[16]"
        }
      ],
      "payable": false,
      "stateMutability": "view",
      "type": "function"
    }
  ],
  "bytecode": "0x608060405234801561001057600080fd5b506040518060400160405280600981526020017f5065742053686f702100000000000000000000000000000000000000000000008152506010908051906020019061005c929190610062565b50610107565b828054600181600116156101000203166002900490600052602060002090601f016020900481019282601f106100a357805160ff19168380011785556100d1565b828001600101855582156100d1579182015b828111156100d05782518255916020019190600101906100b5565b5b5090506100de91906100e2565b5090565b61010491905b808211156101005760008160009055506001016100e8565b5090565b90565b6103e8806101166000396000f3fe608060405234801561001057600080fd5b506004361061004c5760003560e01c806317d7de7c146100515780633de4eb17146100d457806343ae80d31461011a5780638588b2c514610188575b600080fd5b6100596101ca565b6040518080602001828103825283818151815260200191508051906020019080838360005b8381101561009957808201518184015260208101905061007e565b50505050905090810190601f1680156100c65780820380516001836020036101000a031916815260200191505b509250505060405180910390f35b6100dc61026c565b6040518082601060200280838360005b838110156101075780820151818401526020810190506100ec565b5050505090500191505060405180910390f35b6101466004803603602081101561013057600080fd5b81019080803590602001909291905050506102ed565b604051808273ffffffffffffffffffffffffffffffffffffffff1673ffffffffffffffffffffffffffffffffffffffff16815260200191505060405180910390f35b6101b46004803603602081101561019e57600080fd5b8101908080359060200190929190505050610320565b6040518082815260200191505060405180910390f35b606060108054600181600116156101000203166002900480601f0160208091040260200160405190810160405280929190818152602001828054600181600116156101000203166002900480156102625780601f1061023757610100808354040283529160200191610262565b820191906000526020600020905b81548152906001019060200180831161024557829003601f168201915b5050505050905090565b610274610390565b60006010806020026040519081016040528092919082601080156102e3576020028201915b8160009054906101000a900473ffffffffffffffffffffffffffffffffffffffff1673ffffffffffffffffffffffffffffffffffffffff1681526020019060010190808311610299575b5050505050905090565b600081601081106102fa57fe5b016000915054906101000a900473ffffffffffffffffffffffffffffffffffffffff1681565b60008082101580156103325750601082105b61033b57600080fd5b336000836010811061034957fe5b0160006101000a81548173ffffffffffffffffffffffffffffffffffffffff021916908373ffffffffffffffffffffffffffffffffffffffff160217905550819050919050565b60405180610200016040528060109060208202803883398082019150509050509056fea265627a7a723158202232585ab1eda7699f827d5e8d242f1a580f9e153fd0b18461c24bf54ae0b6d764736f6c63430005100032",
  "source": "// SPDX-License-Identifier: UNLICENSED\n\npragma solidity ^0.5.0;\n\ncontract Adoption {\n\taddress[16] public adopters; // public gives it automatic getter method, but array need key\n\tstring name;\n\n\tconstructor() public {\n\t\tname = \"Pet Shop!\";\n\t}\n\n\tfunction getName() public returns (string memory) {\n\t\treturn name;\n\t}\n\n\tfunction adopt(uint petId) public returns (uint) {\n\t\trequire(petId >= 0 && petId < 16);\n\t\tadopters[petId] = msg.sender;\n\n\t\treturn petId;\n\t}\n\n\tfunction getAdopters() public view returns (address[16] memory) {\n\t\treturn adopters;\n\t}\n\t\n}\n\n",
  "sourcePath": "/Users/Jocke/DAPPS/trufflesuite_dev/petshop/contracts/Adoption.sol",
  "compiler": {
    "name": "solc",
    "version": "0.5.16+commit.9c3226ce.Emscripten.clang"
  },
  "schemaVersion": "3.4.6",
  "updatedAt": "2022-03-23T05:43:21.306Z",
  "devdoc": {
    "methods": {}
  },
  "userdoc": {
    "methods": {}
  }
}